:020000040800F2
:100000000050002005020008E5120008F512000863
:100010000513000815130008251300080000000050
:1000200000000000000000000000000001020008C5
:100030000102000800000000010200085D0A00083B
:100040000102000801020008010200080102000884
:100050000102000801020008010200080102000874
:100060000102000801020008010200080102000864
:100070000102000801020008010200080102000854
:100080000102000801020008010200080102000844
:100090000102000801020008010200080102000834
:1000A0000102000801020008010200080102000824
:1000B0000102000801020008010200080102000814
:1000C0000102000801020008010200080102000804
:1000D00001020008110600080102000801020008E0
:1000E00001020008010200080102000801020008E4
:1000F00001020008010200080102000801020008D4
:1001000001020008010200080102000801020008C3
:1001100001020008010200080102000801020008B3
:1001200001020008010200080102000801020008A3
:1001300000000000333333330000000000000000F3
:1001400000000000000000000000000000000000AF
:10015000000000000000000000000000000000009F
:10016000000000000000000000000000000000008F
:10017000000000000000000000000000000000007F
:10018000000000000000000000000000000000006F
:10019000000000000000000000000000000000005F
:1001A000000000000000000000000000000000004F
:1001B000000000000000000000000000000000003F
:1001C000000000000000000000000000000000002F
:1001D000000000000000000000000000000000001F
:1001E000000000000000000000000000000000000F
:1001F00000000000000000000000000000000000FF
:10020000FEE700BF00201649164A174B02E00C58C3
:100210001450043015189D42F9D31449144A002093
:1002200001E041F8040B9142FBD31249124A4FF00E
:10023000AA3001E041F8040B9142FBD300F0C8FA68
:100240004FF0000001460246034604460546834639
:100250000746DFF828E001F06DB8FFF7FEBF0000A9
:1002600000F8000800000020140000201400002006
:1002700098240020004F0020005000205A0200085F
:100280000348044B834202D0034B03B11847704725
:10029000140000201400002000000000054806495A
:1002A0000B1AD90F01EBA301491002D0034B03B184
:1002B00018477047140000201400002000000000C0
:1002C00010B5064C237843B9FFF7DAFF044B13B19E
:1002D0000448AFF300800123237010BD14000020F8
:1002E000000000007419000808B5054B1BB1054952
:1002F0000548AFF30080BDE80840FFF7CFBF00BF5F
:1003000000000000180000207419000810B5012139
:1003100082B0042000F070FB0121082000F06CFB8B
:10032000094C0121102000F067FB084B204601A971
:10033000019300F08FFC20464FF4005100F002FDC5
:1003400000F006F802B010BD0010014000200110BE
:10035000F0B50F4D0024012340F203460D4883B051
:10036000A5F10A0703E057F8130035F8063C0134FD
:1003700001A9ADF80430ADF8066000F06BFC182C54
:1003800005F1060504EB4403EDD103B0F0BD00BF59
:10039000BE18000800080140012930B54FF00302E3
:1003A00014BF042410240A4B00EB400003EB40016F
:1003B00083B08D8853F8100001A9ADF804508DF872
:1003C00007408DF8062000F045FC03B030BD00BFAB
:1003D000B4180008064B00EB400010B403EB4004D7
:1003E0000A4653F81000A18810BC00F0ADBC00BF55
:1003F000B418000808B5074B00EB400003EB4002BF
:10040000918853F8100000F08FFC003818BF0120CD
:1004100008BD00BFB418000830B5264A264B92F834
:10042000292000EB400003EB4001012A8C8853F89F
:10043000105083B01ED001222146284600F084FCD3
:1004400000238DF807309DF80730092B0AD800BF2C
:100450009DF807300133DBB28DF807309DF8073087
:10046000092BF4D921462846002203B0BDE83040CC
:1004700000F06ABC00222146284600F065FC0023FB
:100480008DF806309DF80630092B0AD800BF9DF87C
:1004900006300133DBB28DF806309DF80630092BAB
:1004A000F4D921462846012203B0BDE8304000F0CF
:1004B0004BBC00BF60030020B4180008FFF726BF44
:1004C000F8B5174C40F221220021204601F040F9F6
:1004D00009200023012140224FF0380E4FF0080C74
:1004E00004270A26252560750E4884F801E084F863
:1004F0000DC027742675A575046023702371A37140
:10050000E3716372A372E37223736374A374E3747D
:10051000A1702172A173E2706271E273F8BD00BF35
:100520003C010020340100204FF4005108B5084878
:1005300000F000FC4FF4005120B1BDE80840044831
:1005400000F000BC0248BDE8084000F0F9BB00BF65
:1005500000100140026810B4138819061CD5B0F8C9
:100560001D40B0F81B108C4249D0B0F81D1001445A
:1005700091F81F119180B0F81D100131A0F81D10E5
:10058000B0F81D10FF2904D90021447F4177847FF2
:100590008177002180F820129B0628D590F81F3221
:1005A0006BB1B0F819300133A0F81930B0F8193038
:1005B000FF2B04D90023417E4376817E8376928887
:1005C000B0F81730D2B20344DA77B0F817300133FD
:1005D000A0F81730B0F81730FF2B0AD8B0F8172062
:1005E000B0F819309A4204BF012380F81F3210BCC2
:1005F00070470023C27DC375027E0376EEE790F854
:1006000020120029B1D1918921F080019181C3E7A5
:10061000014B1868FFF79EBF340100202DE9F0411F
:10062000002504460F46C17DC575017E0576417ED5
:100630004576817E8576C17EC576017F0577417FCF
:100640004577817F86B080680121A57784F81F52A5
:1006500084F8205290461E4600F0CEF96068B0F54E
:10066000804F69D0B0F5003F5DD0B0F5802F5AD0F3
:1006700001250121206900F0BFF901A800F04AFB23
:1006800040F20342237D01A905FA03F3ADF80430DB
:10069000E068ADF8062000F0DDFA41F60303627D64
:1006A000E068954001A9ADF80450ADF8063000F0BF
:1006B000D1FA6423B8F1000F14BF4FF400550025A0
:1006C00000220C2003FB07F3012EADF80E5002931D
:1006D000ADF81420ADF80C20ADF8120027D0022E92
:1006E0000ABF4FF4C063ADF81020ADF81030206899
:1006F00002A900F0F5F92068012100F047FA20680E
:10070000012240F2255100F04BFA0122A17D94F91B
:1007100016300B4801F01F015B098A4040F8232086
:1007200006B0BDE8F081012100F072F9A0E74FF4B6
:100730008063ADF81030DAE7012100F05DF997E74A
:1007400000E100E00268938943F0800393817047E1
:100750000B4A034632F8100000040FD532F813009C
:10076000C0F30E00884209DB10B432F813400120B8
:10077000611A89B210BC22F813107047002070472C
:1007800038010020034A32F8103043F4004322F8C5
:1007900010307047380100200B480C4A036882B0C3
:1007A0009BB2ADF8063013881B0405D5BDF80610C2
:1007B00013880B449BB21380BDF8062003689B1A74
:1007C000036002B0704700BF3000002038010020F5
:1007D00008B500F02FF84FF4803000F04BF800F02F
:1007E00065F8102000F070F9022000F063F9002095
:1007F00000F096F8002000F0A7F84FF4806000F0B9
:1008000099F84FF480304FF4E01100F067F80120C0
:1008100000F06EF8392000F007F90028FAD0022025
:1008200000F06CF800F074F80828FBD1BDE808402F
:10083000FFF744BE4FF41F000C4B0D4A196841F0FE
:100840000101196059680A405A601A6822F08472DE
:1008500022F480321A601A6822F480221A605A68E0
:1008600022F4FE025A609860704700BF00100240F8
:100870000000FFF80C4BB0F5803F1A6822F480327C
:100880001A601A6822F480221A6008D0B0F5802F0E
:1008900004D11A6842F4A0221A60704770471A689F
:1008A00042F480321A60704700100240002382B088
:1008B0000949019300E04AB90A68019B02F4003239
:1008C00001330193019BB3F5A06FF4D1024B18687B
:1008D000C0F3404002B0704700100240034A536822
:1008E00023F47C130B430343536070470010024012
:1008F000014B1860704700BF60004242034A5368D2
:1009000023F0030303435360704700BF001002400D
:10091000024B586800F00C00704700BF0010024006
:10092000034A536823F0F00303435360704700BF4A
:1009300000100240034A536823F4E063034353600A
:10094000704700BF00100240034A536823F460530D
:1009500043EAC0035360704700100240214A30B49C
:10096000536803F00C03082B26D0002312217A22AF
:100970000370C3701C4B417082701A4A1B4C516843
:100980001B4DC1F30311615CCB4043605168C1F35F
:100990000221615C23FA01F181605168C1F3C22137
:1009A000615CCB40C3605268C2F38132AA5C30BC48
:1009B000B3FBF2F30361704753685168C3F3834399
:1009C000C90303F1020307D55268920304D4064A0F
:1009D00002FB03F30360D0E7064A02FB03F3036064
:1009E000CBE700BF0010024000127A000400002094
:1009F0000000002000093D00044A936911B118432A
:100A00009061704723EA0000906170470010024037
:100A1000044AD36911B11843D061704723EA00003A
:100A2000D0617047001002404309012B0BD0022B0C
:100A3000094B00F01F000CBF1B6A5B6A23FA00F031
:100A400000F001007047044B00F01F001B6823FA00
:100A500000F000F00100704700100240024A1368E5
:100A600001331360704700BF3000002030B587B0FD
:100A700001A8FFF773FFF02500210724029B094A14
:100A80000948A2FB0323094A9B09013B436082F802
:100A90002350816002220460054800F059FE07B02F
:100AA00030BD00BFD34D621010E000E000ED00E06B
:100AB00038010020034A136803F03803034313602E
:100AC000704700BF00200240044B196821F010015C
:100AD00019601A6802431A60704700BF0020024084
:100AE00030B50D460446038ACA8823F440531343A5
:100AF0008A89038283892249A8880B40298918435F
:100B00006B8901430B43A381A38A87B023F440730D
:100B1000134301A8A382FFF721FFDDE90331194840
:100B20002A68844208BF0B46A18903EB83030904AA
:100B30004CBF5200920003EB8303B3FBF2F3642239
:100B40001148A589A0FB03C1490902FB11332A04FE
:100B50004FEA011109D41B013233A0FB0323C3F375
:100B600043130B43238107B030BDDB003233A0FBBE
:100B70000323C3F3421242EA0103238107B030BDCD
:100B8000F3E9FFFF003801401F85EB51838919B15C
:100B900043F400538381704723F4005383817047EB
:100BA000012310B401F01F04C1F34211012903FA1B
:100BB00004F30FD002290CBF1030143022B10268A8
:100BC00010BC134303607047026810BC22EA0303A1
:100BD000036070470C30F1E7054B38B905481B1A24
:100BE0001B680548C01A18BF012070471B1AF7E799
:100BF0000050002000010000AAAAAAAA0190019BAF
:100C000012231A464FF000014FF000034FF000038B
:100C100003F101039342FBD301F101018142F5D3BA
:100C2000704700BF4FF47A7303FB00F0FFF7E6BF95
:100C300072B6BFF34F8F0549054BCA6802F4E062F4
:100C40001343CB60BFF34F8FFEE700BF00ED00E022
:100C50000400FA052DE9F041CD780A88EB0648BF7B
:100C60008B7805F00F0748BF1F4312F0FF0F21D00C
:100C700000234FF0010C4FF00F08066802E001332B
:100C8000082B16D00CFA03F131EA0204F7D19C00CC
:100C900008FA04FE26EA0E0607FA04F4282D46EAAE
:100CA000040634D0482D03F1010308BF0161082B6D
:100CB000E8D10660FF2A26D908234FF0010C0CFA70
:100CC00003F434EA02014FF00F08466807D00133FD
:100CD000102B17D00CFA03F434EA0201F7D1990073
:100CE000203908FA01FE26EA0E0607FA01F1282D3E
:100CF00046EA010609D0482D03F1010308BF04614B
:100D0000102BE7D14660BDE8F0814461DFE7416127
:100D1000B5E700BF4FF0FF33022104228170C2709B
:100D200003704370704700BF8368194214BF0120ED
:100D300000207047C368194214BF0120002070478B
:100D400001617047416170470AB1016170474161BB
:100D5000704700BF034659B100204A1E92B20132CB
:100D60001A4413F8011B08449342C0B2F9D17047EA
:100D7000084670470023427E4376827E8376C27D9A
:100D8000C375027E0376427F4377827F8377C27E7C
:100D9000C376027F037780F81F3280F820327047D5
:100DA00090F82032002BFBD1B0F81B30034483F8BD
:100DB0001F11B0F81B300133DBB2A0F81B30B0F8C4
:100DC0001B20B0F81D309A4204BF012380F8203266
:100DD000FFF7B8BC70B5064672B1B2F5807F28BF88
:100DE0004FF480720C468D1814F8011B3046FFF743
:100DF000D7FFAC42F8D170BD4FF48072F2E700BF6C
:100E0000B0F81720B0F819309A4216D8B0F8172069
:100E1000B0F819309A4207D390F81F32002B0CBF5C
:100E200000204FF480707047B0F81730B0F81920E8
:100E300003F58070801A80B27047B0F81730B0F8B0
:100E40001900181A80B27047014608B50846FFF726
:100E5000D7FF0028FAD00022B1F819300B44D87F10
:100E6000B1F819300133DBB2A1F8193081F81F2233
:100E700008BD00BF62B32DE9F04105461E464FF0A4
:100E80000008571EBFB201370F44002402E0B442ED
:100E90001CD014462846FFF7B3FF621C0028F6D08A
:100EA0002846FFF7ADFF0028FAD0B5F819302B44DB
:100EB000DA7FB5F819300133DBB2A5F8193085F8BF
:100EC0001F8201F8012BB942DFD10120BDE8F0817A
:100ED000012070472DE9F041AE48FFF791FF18B9A6
:100EE00001242046BDE8F081AA48FFF7ADFFAA4DD6
:100EF000A0F152032870282B2AD8DFE813F0320023
:100F00002900290029002900290029002900290099
:100F10002900290029002900290029002900290089
:100F200029004000B8015901290029007B0129004E
:100F300029002900290029002900290029006E0024
:100F40007D0029002900F0002900290029002E0138
:100F50009048FFF70FFF3F218E48FFF721FF002445
:100F6000BFE78C48FFF770FF522800F0A7810024EC
:100F700046218848FFF714FF2046BDE8F0818548E8
:100F8000FFF762FF6428F2D14F218248FFF708FF84
:100F90004FF620724FF4E06318216A80AB807F48DF
:100FA000697000F025FC0346202200217C48AB71CB
:100FB00000F0CEFB20227949794800F047FC272138
:100FC0007548FFF7C7FE034628227349714801247C
:100FD00085F82730FFF7FEFE83E76E48FFF734FF02
:100FE0007228C4D1FFF7B4F900F008FA4F2169481C
:100FF000FFF7D6FE012474E76648FFF725FF732844
:10100000B5D1684EF07B96F83F30834200F04081C6
:10101000002301339BB203EB4312324492F83F208A
:101020001F468242F5D1B6F82AC09C4540F2338172
:1010300003EB43111A46314405E0013292B2944564
:1010400001F1210103D091F83F408442F5D0D31A39
:101050009CB24F214F48FFF7A3FE6C70ECB13B46AA
:10106000022104F1FF387A1C1FFA88F8904403EB40
:1010700043123244D2F83B2001336A5468184FEAD5
:10108000122E170C01F1040C120E434580F801E0FA
:101090005FFA8CF18770C270E9D1B6F80900D6F812
:1010A0000130A71CBF0005EB840407F0FC06A0700C
:1010B0001A0A000A3146E0702371627136481A0C30
:1010C0001B0EA271E371FFF745FE0346FFB23249E2
:1010D0003048721C0124EB55FFF77CFE01E7DFF876
:1010E000C48041F2883398F82C602F490736F6B255
:1010F000771C3A462748FFF7BDFE044600283FF418
:1011000036AF39462448FFF725FE2E4473788342D4
:101110007FF42DAFAA786B786F6843EA0223FF2B28
:1011200000F0B180B8F82A209A42FFF420AF03EB18
:10113000431606F14000ED7898F82C201B494044F6
:1011400000F090FA08EB06034F21124883F83F5055
:10115000C3F83770FFF724FEC3E641F28833032259
:1011600011490C48FFF786FE044600283FF4FFAE05
:1011700003210948FFF7EEFDEB7883427FF4F7AED9
:101180006978084BAA780B4402484F211A74FFF77C
:1011900007FEA6E63C0100203400002044190008A8
:1011A0003B00002060030020350000203C000020B0
:1011B00041F28833032246494648FFF75BFE002888
:1011C0003FF4D5AE03214448FFF7C4FDEB788342DA
:1011D0007FF4CDAE41496B78A8788A1F58541344E8
:1011E0009B79DB087FF4C3AE4F213A48FFF7D8FD67
:1011F000012476E641F288330F2235493548FFF75E
:1012000039FE00283FF4B3AE0F213348FFF7A2FDAB
:10121000EB7B83427FF4ABAE314CD5F80720687985
:10122000A9782B79C4F82F20EA7843EA0023D5F86F
:101230000B60A87984F829106978202A6385C4F89E
:10124000336084F8281084F82D2084F82C0084F86A
:101250002E003FF68CAE18283FF689AEFF2B3FF6E6
:1012600086AE01291ED000297FF481AEBCE7194863
:10127000FFF7EAFD65287FF47AAE00F0C7F8002892
:101280003FF475AEB0E77A1C7FF44CAFFE234EE717
:1012900000273B46C7E600244F210E48FFF780FD9C
:1012A0006C70FAE6FFF778F894F8291094F82E009D
:1012B000003918BF0121FFF78DF895E74F21054848
:1012C000FFF76EFD6420FFF7ADFCFFF7B1FC00BF38
:1012D000350000203C01002034000020762400204E
:1012E0006003002042F236130221014AD154FEE786
:1012F0006003002042F236130321014AD154FEE775
:101300006003002042F236130421014AD154FEE763
:101310006003002042F236130521014AD154FEE752
:101320006003002042F236130621014AD154FEE741
:101330006003002070B5FFF7C3F800234FF410617D
:101340001A461E48FFF76AF9FFF790FB0020FFF7E7
:1013500019FA1B4D00F052F8184E02E0FFF7BAFDE3
:1013600098B1E020FFF738FC0446E8B9FFF714FA1B
:1013700020464FF47A71FFF7EBF90028EED0FFF723
:10138000D3F8FFF7A7FD0028EBD16B7B0133DBB26D
:10139000042B6B730DD83046FFF7ECFCE020FFF711
:1013A0001BFC04460028E1D042F236130022EA5426
:1013B00070BD42F236130122EA5470BD3C01002098
:1013C00060030020312938B50C4606D95A2906D1C8
:1013D000BDE838400021FEF7DFBF2F2900D838BD17
:1013E00005460121FEF7D8FFB4F130012846BDE8DB
:1013F000384018BF0121FEF7EDBF00BF42F237129F
:101400000021014800F0A4B9600300202DE9F84351
:10141000934C2378B3BB0122A37B2270E21802F520
:1014200004521032927912F0010512D194F82C3046
:10143000002B00F0108142F2FE0628462318995D29
:10144000FFF7C0FF013594F82C30E8B28342F5D89D
:10145000A37B234403F5045310339B79590711D51B
:10146000002194F829306171012BA171E171217281
:101470006170A170E170217194F82E0008BF1946C7
:10148000FEF7A8FF94F82C308BB100252846B4F85D
:101490000B30013503EB43132344034493F840100E
:1014A000FFF790FF94F82C30E8B28342EFD894F81D
:1014B0002820B4F80B30012A00F0988094F82C20F2
:1014C000002A42D000274FF001083D4603EB4312AB
:1014D00022442A4492F84060A6F14802242A2ED8D9
:1014E000DFE802F0132D2D2D132D2D2D2D2D2D2D5B
:1014F0002D2D2D2D762D462D2D2D2D2D2D2D2D2DBA
:101500002D2D2D2D132D2D2D130000212846FEF7F6
:1015100043FF06F0DF062846FEF76CFF4C3E18BF7F
:1015200001268642B4F80B3009D003EB4312224463
:10153000D2F83B1008FA05F50D43C2F83B5094F879
:101540002C200137FDB2AA42C0D801339AB202EB77
:1015500042122244A17B92F83F20A4F80B30914222
:10156000A273E17301D0002323700120BDE8F8834A
:101570006619327C002AE2D000212846FEF70CFFD3
:10158000307C0121FEF708FF0021307CFEF722FFAE
:101590002846FEF72FFF01218146307CFEF71AFF17
:1015A0002846FEF727FF03460021307C1E46FEF743
:1015B000F3FEB4F80B30B9F1000FB6D1002EB4D061
:1015C00094F82C200137FDB2AA423FF67FAFBCE76A
:1015D00028460021FEF7E0FE013794F82C20FDB2EA
:1015E000AA42B4F80B303FF671AFAEE74FF47A760B
:1015F00003EB43122244D2F83700D4F80110D4F898
:101600002F20014406FB01F6013EB6FBF2F6A27B59
:10161000C4F80110224402F50452D4F80510103227
:10162000C4F805609279C2F3400592073FF546AFD2
:10163000B4F80920761A3244A4F80920002E3FF4A9
:101640003DAF94F82E000135FEF7E6FEAE42F8D12C
:10165000B4F80B3032E753073FF502AF27E700BF7E
:1016600060030020844641EA000313F0030349D1DC
:10167000403A23D30B6803604B6843608B688360F8
:10168000CB68C3600B6903614B6943618B698361FC
:10169000CB69C3610B6A03624B6A43628B6A8362E4
:1016A000CB6AC3620B6B03634B6B43638B6B8363CC
:1016B000CB6BC36340304031403ADBD230320BD386
:1016C0000B6803604B6843608B688360CB68C360C2
:1016D00010301031103AF3D20C3205D351F8043BDC
:1016E00040F8043B043AF9D2043208D0D2071CBFB8
:1016F00011F8013B00F8013B01D30B8803806046E1
:10170000704700BF082A13D38B07B1D010F0030332
:10171000AED0C3F10403D21ADB071CBF11F8013BA2
:1017200000F8013BA4D331F8023B20F8023B9FE7CD
:10173000043AD9D3013A11F8013B00F8013BF9D240
:101740000B7803704B7843708B78837060467047DA
:10175000F0B4860746D0541E002A3CD00346CAB2D5
:1017600001E0013C37D303F8012B9D07F9D1032C8D
:101770002AD9CDB245EA05250F2C45EA054534D9CD
:10178000A4F1100222F00F0C03F1200716096744A0
:1017900003F1100242E9045542E902551032BA42FF
:1017A000F8D1721C14F00C0F03EB021204F00F06B8
:1017B00013D0331F23F003030433134442F8045BB4
:1017C0009342FBD106F003042CB1CAB21C4403F8C7
:1017D000012B9C42FBD1F0BC704734461346002CD1
:1017E000F3D1F8E714460346C1E71A462646E0E778
:1017F00020F0030110F00300C0F1000051F8043B99
:1018000000F1040C4FEACC0C6FF000021CBF22FA6E
:101810000CF213434FF0010C4CEA0C2C4CEA0C4C2C
:10182000A3EB0C0222EA030212EACC1204BF51F825
:10183000043B0430F4D0C2F1000102EA0102B2FA22
:1018400082F2C2F11F0200EBD200704770B440EA8E
:101850000104A30722D1032A20D90B4604461946C6
:1018600053F8046BA6F1013525EA060515F0803F13
:1018700015D1043A032A194644F8046BEFD84D1EDB
:1018800052B1234615F8011F561E03F8011B41B142
:1018900032461C46002AF4D170BC704704464D1EE7
:1018A000EEE72244002EF7D003F8011B9342FBD150
:1018B00070BC7047000801400100000801400200B0
:1018C0000008014004000008014008000008014031
:1018D00010000008014020000008014040000008FE
:1018E000014080000008014000010008014000089C
:1018F000000801400010000C01400100000C0140F4
:101900000200000C01402000000C01404000000CCF
:1019100001408000000C01400001000C0140000269
:10192000000C01400004000C01400008000C0140C4
:101930000010000C01400020000C01400040000C91
:1019400001400080687773696D5F73746D33325F37
:101950006D61706C655F6D696E690000F8B500BF00
:10196000F8BC08BC9E467047F8B500BFF8BC08BC80
:041970009E467047D8
:04197400E90200087C
:04197800C1020008A0
:10F8000002040608000000000102030401020304D0
:04F8100006070809D6
:0400000508000000EF
:00000001FF
